:020000040000FA
:040000004BEF01F0D1
:08000800800E016EFE0EA1EC5A
:1000100000F0010EA1EC00F0750E0A6E300E1BEF21
:1000200001F0016A018E136EFE0EA1EC00F0135078
:10003000A1EF00F000960650D8B40086050E056EBC
:10004000270E0C6E100E0CD8030E0C6EE80E08D89E
:100050000C6A640E05D80C6A0A0E02D80D5008D03E
:100060000B6E0E500A6E0D50096E2EEC01F0095009
:10007000096E054E0096065003E0055CD8B008D026
:100080000950D8A4009600B603D0300FA1EF00F0BD
:100090001200A66AA68E0900F55002E002D8FBD72E
:1000A0001200106E8A9600008A94939693940F0E15
:1000B0009316105000B27FEF00F03A0E0A6E980EC1
:1000C0001BEC01F0330E0F6E2CD8130E0A6E880E47
:1000D0001BEC01F026D8640E1AEC01F022D8640E55
:1000E0001AEC01F0220E0F6E1CD8280E07D80C0E49
:1000F00005D8060E03D80082105001D000800F6E84
:1001000000A00AD08A9403080BE30AD8070E0A6EEF
:10011000D00E1BEC01F012000080FE0810E08A8473
:1001200000A000908A860F0E81160F50F00B8112EE
:100130008A960F3A00B0F5D74B0E1AEC01F010502A
:10014000120001BE51EF00F0008800A8009800BA2C
:1001500003D0008A3CD825E2080E0C6E4CD80B3632
:100160000C2EFCD700A82BD852D84CD800B819D8E0
:100170001FD80B50D8901200008800A8009800BC2F
:1001800005D0FE0B086E008CD890120000BE05D082
:100190000F6E008E1CD805E20F5020D802E200A896
:1001A00012000DD834D8009C009E009A01D812008D
:1001B000E268023CE16EE1880750E41207D0E26891
:1001C00002C0E1FF071CE616E188E4161200F0DF2A
:1001D0001ED8F5DF17D8085000BA01090B6E080EBB
:1001E0000C6E0B36D8B0E4DFD8A0E9DF10D80AD8FF
:1001F0000C2EF7D7DDDF0BD8E26802C0E1FF075015
:10020000E714FF0FE26803C0E1FF041CDCD7E268DB
:10021000033CE16EE1880450D0D70C6A0B6EFF0EF0
:100220000B260C2200D0D8A01200030E0A6EDE0EA0
:1002300002D8F5D70A6AE90F096EFC0E05E3000043
:1002400000000926FDE2000009260A06F9E209B0CD
:1002500000D009A202D000D0000012000E6A0D6A80
:10026000100EF36E0A340D360E360B500D5C0C502A
:100270000E5805E30B500D5E0C500E5AD88009360F
:100280000A36F32EEFD709501200554E454D415412
:10029000204242470000006A0001140EBEDF070E34
:1002A000C16E196A140E186E156A960E146EACDEC5
:1002B000176A166A800E016EB4DE020EF76E8A0EA1
:1002C000F66EE7DE820E026E100E076E820E036E71
:1002D000080E046EA10E52DF195050DF18504EDF89
:1002E00035DF156E31DF146E010E0C6EF40E96DFE5
:1002F000820E026E100E076E820E036E080E046EE2
:10030000A00E3CDF19503ADF185038DF1FDF176EA0
:100310001BDF166E800E016EC00E83DE066A17C0EC
:100320000EF016C00DF086DE010E0C6EF40E76DFB8
:04033000BED7FFD75E
:020000040030CA
:03000100220A0EC2
:02000500018078
:060008000FC00FE00F40E5
:00000001FF
